:020000040000FA
:100000000C9462000C948A000C948A000C948A0070
:100010000C948A000C948A000C948A000C948A0038
:100020000C948A000C948A000C948A000C948A0028
:100030000C948A000C948A000C948A000C948A0018
:100040000C94CC020C948A000C943C030C94160380
:100050000C948A000C948A000C948A000C948A00F8
:100060000C948A000C948A000000000024002700F1
:100070002A0000000000250028002B0000000000DE
:1000800023002600290004040404040404040202DA
:100090000202020203030303030301020408102007
:1000A0004080010204081020010204081020000012
:1000B0000008000201000003040700000000000027
:1000C0000000EE0411241FBECFEFD8E0DEBFCDBF8D
:1000D00011E0A0E0B1E0E2E8FDE002C005900D9281
:1000E000A231B107D9F721E0A2E1B1E001C01D9230
:1000F000A03CB207E1F710E0C2E6D0E004C02197CF
:10010000FE010E94B906C136D107C9F70E946E03ED
:100110000C94BF060C940000833081F028F48130E9
:1001200099F08230A9F008958730A9F08830C9F09D
:100130008430B1F4809180008F7D03C08091800075
:100140008F7780938000089584B58F7784BD08955C
:1001500084B58F7DFBCF8091B0008F778093B00006
:1001600008958091B0008F7DF9CFCF93DF93282F32
:1001700030E0F901E255FF4F8491F901E656FF4F57
:10018000D491F901EA57FF4FC491CC23A1F081111A
:100190000E948C00EC2FF0E0EE0FFF1FE458FF4FA1
:1001A000A591B491EC91ED2381E090E009F480E019
:1001B000DF91CF91089580E090E0FACF1F93CF9325
:1001C000DF93282F30E0F901E255FF4F8491F901C8
:1001D000E656FF4FD491F901EA57FF4FC491CC2363
:1001E000A9F0162F81110E948C00EC2FF0E0EE0F89
:1001F000FF1FEE58FF4FA591B4918FB7F894EC9183
:10020000111108C0D095DE23DC938FBFDF91CF9111
:100210001F910895DE2BF8CFCF93DF9390E0FC0180
:10022000E656FF4F24918A579F4FFC018491882303
:10023000D1F090E0880F991FFC01E859FF4FA5917C
:10024000B491FC01EE58FF4FC591D49161110EC0DD
:100250009FB7F8948C91E22FE0958E238C932881A0
:10026000E223E8839FBFDF91CF9108958FB7F89481
:10027000EC91E22BEC938FBFF6CF1F93CF93DF93DC
:10028000182FEB0161E00E940C01209739F460E027
:10029000812FDF91CF911F910C94DE00CF3FD105CC
:1002A00011F461E0F5CFE12FF0E0E255FF4FE4916A
:1002B000E33031F140F4E130B1F0E230E1F0C03848
:1002C000D1057CF7E4CFE73029F1E83059F1E4308B
:1002D000B1F780918000806280938000D0938B0082
:1002E000C0938A0004C084B5806884BDC7BDDF9117
:1002F000CF911F91089584B5806284BDC8BDF7CFAA
:1003000080918000806880938000D0938900C093A2
:100310008800EDCF8091B00080688093B000C093DA
:10032000B300E5CF8091B00080628093B000C093AD
:10033000B400DDCF3FB7F8948091BC019091BD012E
:10034000A091BE01B091BF0126B5A89B05C02F3F6B
:1003500019F00196A11DB11D3FBFBA2FA92F982FEB
:100360008827BC01CD01620F711D811D911D42E0E6
:10037000660F771F881F991F4A95D1F70895AF928E
:10038000BF92CF92DF92EF92FF920F931F93CF9382
:10039000DF936C017B018B01040F151FEB015E01E4
:1003A000AE18BF08C017D10759F06991D601ED9179
:1003B000FC910190F081E02DC6010995892B79F718
:1003C000C501DF91CF911F910F91FF90EF90DF90CA
:1003D000CF90BF90AF900895FC01538D448D252F91
:1003E00030E0842F90E0821B930B541710F0CF96CF
:1003F000089501970895FC01918D828D981761F001
:10040000A28DAE0FBF2FB11D5D968C91928D9F5F17
:100410009F73928F90E008958FEF9FEF0895FC01F6
:10042000918D828D981731F0828DE80FF11D858DA9
:1004300090E008958FEF9FEF0895FC01918D228D3C
:10044000892F90E0805C9F4F821B91098F739927C1
:10045000089582E191E00E941D0221E0892B09F4B8
:1004600020E0822F089580E090E0892B29F00E94FF
:10047000290281110C9400000895FC01A48DA80F9D
:10048000B92FB11DA35ABF4F2C91848D90E00196D6
:100490008F739927848FA689B7892C93A089B189F6
:1004A0008C91837080648C93938D848D981306C097
:1004B0000288F389E02D80818F7D80830895EF92FB
:1004C000FF920F931F93CF93DF93EC0181E0888F0E
:1004D0009B8D8C8D98131AC0E889F989808185FFDE
:1004E00015C09FB7F894EE89FF896083E889F98980
:1004F00080818370806480839FBF81E090E0DF9182
:10050000CF911F910F91FF90EF900895F62E0B8DD4
:1005100010E00F5F1F4F0F731127E02E8C8D8E118F
:100520000CC00FB607FCFACFE889F989808185FFF6
:10053000F5CFCE010E943D02F1CFEB8DEC0FFD2FE8
:10054000F11DE35AFF4FF0829FB7F8940B8FEA89B1
:10055000FB8980818062CFCFCF93DF93EC01888DC0
:100560008823B9F0AA89BB89E889F9898C9185FD2E
:1005700003C0808186FD0DC00FB607FCF7CF8C91BC
:1005800085FFF2CF808185FFEDCFCE010E943D0235
:10059000E9CFDF91CF9108951F920F920FB60F927E
:1005A00011242F933F938F939F93AF93BF93809189
:1005B000B8019091B901A091BA01B091BB013091FD
:1005C000B70123E0230F2D3758F50196A11DB11D6A
:1005D0002093B7018093B8019093B901A093BA0119
:1005E000B093BB018091BC019091BD01A091BE016F
:1005F000B091BF010196A11DB11D8093BC019093E4
:10060000BD01A093BE01B093BF01BF91AF919F9177
:100610008F913F912F910F900FBE0F901F901895C3
:1006200026E8230F0296A11DB11DD2CF1F920F9273
:100630000FB60F9211242F933F934F935F936F93B5
:100640007F938F939F93AF93BF93EF93FF9382E139
:1006500091E00E943D02FF91EF91BF91AF919F9178
:100660008F917F916F915F914F913F912F910F905B
:100670000FBE0F901F9018951F920F920FB60F92FA
:1006800011242F938F939F93EF93FF93E091220177
:10069000F09123018081E0912801F091290182FDF0
:1006A0001BC0908180912B018F5F8F7320912C0153
:1006B000821741F0E0912B01F0E0EE5EFE4F958F46
:1006C00080932B01FF91EF919F918F912F910F902C
:1006D0000FBE0F901F9018958081F4CF789484B549
:1006E000826084BD84B5816084BD85B5826085BD2E
:1006F00085B5816085BD80916E00816080936E00BC
:1007000010928100809181008260809381008091AD
:10071000810081608093810080918000816080935E
:1007200080008091B10084608093B1008091B0001E
:1007300081608093B00080917A00846080937A0019
:1007400080917A00826080937A0080917A00816043
:1007500080937A0080917A00806880937A0010926A
:10076000C10060E081E10E940C0160E080E10E9434
:100770000C0160E082E10E940C0160E083E10E94D4
:100780000C0161E08AE00E940C0161E089E00E94B6
:100790000C01E0912201F091230182E08083E0913D
:1007A0001E01F0911F011082E0912001F0912101C2
:1007B0008FEC808310922A01E0912601F0912701AD
:1007C00086E08083E0912401F091250180818061A1
:1007D0008083E0912401F0912501808188608083ED
:1007E000E0912401F0912501808180688083E0916F
:1007F0002401F091250180818F7D808300E010E04D
:1008000081E10E94B500EC0180E10E94B5006C011D
:1008100082E10E94B5007C0183E10E94B50020972F
:10082000E1F4C114D104C9F4E114F104B1F4009766
:10083000A1F470E060E089E00E943D0170E060E0BA
:100840008AE00E943D0101151105D1F20E942902A2
:100850008823B1F20E940000D3CF9E01220F331FE4
:10086000220F331FBE01621B730B6C197D096E0DC5
:100870007F1DEC01CC0FDD1F8C0F9D1F680F791FB2
:10088000072E000C880B990B0E94C0056B017C01A0
:100890002091B3013091B4014091B5015091B6015E
:1008A0000E941C054B015C018092B3019092B4013F
:1008B000A092B501B092B6012091AF013091B00184
:1008C0004091B1015091B201C701B6010E941B05D0
:1008D0002B013C01C092AF01D092B001E092B10176
:1008E000F092B20120E030E040EF51E4C701B601E0
:1008F0000E944C066B017C0120E030E0A901C5019B
:10090000B4010E944C069B01AC01C701B6010E94D4
:100910001C056B017C0120E030E040E751E4C3019D
:10092000B2010E944C069B01AC01C701B6010E94B6
:100930001C056B017C01AC019B0160E070E086E16D
:1009400093E40E941B050E9488056F3F710519F012
:1009500014F06FEF70E077FF02C070E060E089E0B4
:100960000E943D0120E030E046E153E4C701B601BA
:100970000E941C050E9488056F3F710519F014F054
:100980006FEF70E077FF02C070E060E08AE00E94E5
:100990003D010E949A014B015C018AE0C82ED12CD6
:1009A000E12CF12C0E949A01681979098A099B09A6
:1009B000683E734081059105A8F321E0C21AD10871
:1009C000E108F10888EE880E83E0981EA11CB11C96
:1009D000C114D104E104F10429F735CFE2E1F1E0DB
:1009E0001382128288EE93E0A0E0B0E084839583C6
:1009F000A683B78384E091E09183808385EC90E0C7
:100A00009587848784EC90E09787868780EC90E0D8
:100A1000918B808B81EC90E0938B828B82EC90E0C9
:100A2000958B848B86EC90E0978B868B118E128E43
:100A3000138E148E08955058BB27AA270E943305A1
:100A40000C9412060E94040638F00E940B0620F057
:100A500039F49F3F19F426F40C9401060EF4E09546
:100A6000E7FB0C94FB05E92F0E94230658F3BA1705
:100A7000620773078407950720F079F4A6F50C94B4
:100A800045060EF4E0950B2EBA2FA02D0B01B901EF
:100A900090010C01CA01A0011124FF27591B99F0F4
:100AA000593F50F4503E68F11A16F040A22F232F00
:100AB000342F4427585FF3CF469537952795A79550
:100AC000F0405395C9F77EF41F16BA0B620B730BF7
:100AD000840BBAF09150A1F0FF0FBB1F661F771F68
:100AE000881FC2F70EC0BA0F621F731F841F48F41D
:100AF000879577956795B795F7959E3F08F0B0CFA6
:100B00009395880F08F09927EE0F9795879508958C
:100B10000E948F056894B1110C94460608950E94B6
:100B20002B0688F09F5798F0B92F9927B751B0F04E
:100B3000E1F0660F771F881F991F1AF0BA95C9F761
:100B400014C0B13091F00E944506B1E008950C94B4
:100B50004506672F782F8827B85F39F0B93FCCF367
:100B6000869577956795B395D9F73EF490958095DE
:100B7000709561957F4F8F4F9F4F0895E89409C0FE
:100B800097FB3EF490958095709561957F4F8F4FC0
:100B90009F4F9923A9F0F92F96E9BB279395F695D6
:100BA000879577956795B795F111F8CFFAF4BB0F54
:100BB00011F460FF1BC06F5F7F4F8F4F9F4F16C0B8
:100BC000882311F096E911C0772321F09EE8872F42
:100BD000762F05C0662371F096E8862F70E060E0FE
:100BE0002AF09A95660F771F881FDAF7880F969577
:100BF000879597F9089597F99F6780E870E060E01E
:100C000008959FEF80EC089500240A9416161706A5
:100C100018060906089500240A94121613061406ED
:100C200005060895092E0394000C11F4882352F050
:100C3000BB0F40F4BF2B11F460FF04C06F5F7F4F08
:100C40008F4F9F4F089557FD9058440F551F59F0EF
:100C50005F3F71F04795880F97FB991F61F09F3FA9
:100C600079F087950895121613061406551FF2CFD2
:100C70004695F1DF08C0161617061806991FF1CF22
:100C800086957105610508940895E894BB27662749
:100C90007727CB0197F908950E945F060C941206FE
:100CA0000E94040638F00E940B0620F0952311F0F4
:100CB0000C94FB050C94010611240C9446060E942A
:100CC000230670F3959FC1F3950F50E0551F629F67
:100CD000F001729FBB27F00DB11D639FAA27F00D95
:100CE000B11DAA1F649F6627B00DA11D661F829FBC
:100CF0002227B00DA11D621F739FB00DA11D621FA1
:100D0000839FA00D611D221F749F3327A00D611DBD
:100D1000231F849F600D211D822F762F6A2F11249F
:100D20009F5750409AF0F1F088234AF0EE0FFF1FD2
:100D3000BB1F661F771F881F91505040A9F79E3F29
:100D4000510580F00C94FB050C9446065F3FE4F3DC
:100D5000983ED4F3869577956795B795F795E7957F
:100D60009F5FC1F7FE2B880F911D9695879597F988
:100D70000895EE0FFF1F0590F491E02D0994F8946B
:100D8000FFCF000000005F02BF01EC01AC021D02BA
:040D9000FB010F0252
:107E0000112484B714BE81FFF0D085E080938100F7
:107E100082E08093C00088E18093C10086E0809377
:107E2000C20080E18093C4008EE0C9D0259A86E02C
:107E300020E33CEF91E0309385002093840096BBD3
:107E4000B09BFECF1D9AA8958150A9F7CC24DD24C4
:107E500088248394B5E0AB2EA1E19A2EF3E0BF2EE7
:107E6000A2D0813461F49FD0082FAFD0023811F036
:107E7000013811F484E001C083E08DD089C08234E0
:107E800011F484E103C0853419F485E0A6D080C0E4
:107E9000853579F488D0E82EFF2485D0082F10E0AE
:107EA000102F00270E291F29000F111F8ED06801E7
:107EB0006FC0863521F484E090D080E0DECF843638
:107EC00009F040C070D06FD0082F6DD080E0C81688
:107ED00080E7D80618F4F601B7BEE895C0E0D1E017
:107EE00062D089930C17E1F7F0E0CF16F0E7DF06D8
:107EF00018F0F601B7BEE89568D007B600FCFDCFD4
:107F0000A601A0E0B1E02C9130E011968C91119780
:107F100090E0982F8827822B932B1296FA010C0160
:107F200087BEE89511244E5F5F4FF1E0A038BF0790
:107F300051F7F601A7BEE89507B600FCFDCF97BE46
:107F4000E89526C08437B1F42ED02DD0F82E2BD052
:107F50003CD0F601EF2C8F010F5F1F4F84911BD097
:107F6000EA94F801C1F70894C11CD11CFA94CF0C13
:107F7000D11C0EC0853739F428D08EE10CD085E9AC
:107F80000AD08FE07ACF813511F488E018D01DD067
:107F900080E101D065CF982F8091C00085FFFCCF94
:107FA0009093C60008958091C00087FFFCCF809118
:107FB000C00084FD01C0A8958091C6000895E0E648
:107FC000F0E098E1908380830895EDDF803219F02E
:107FD00088E0F5DFFFCF84E1DECF1F93182FE3DFCA
:107FE0001150E9F7F2DF1F91089580E0E8DFEE27F6
:047FF000FF270994CA
:027FFE00040479
:00000001FF
